:100857008FB0D2A0C2A1D2A27F027E00120000C236
:02086700A222CB
:100869008FB0C2A0C2A1D2A27F027E00120000C234
:02087900A222B9
:100825007F0F1208697F021208697F381208697FF5
:090835000E1208697F0102086936
:100800008B088A09890AAB08AA09A90A12083E605E
:1008100013050AE50A7002050914F912083EFF12D1
:05082000085780E222F0
:0A0887001208257F4112085780F97E
:0300000002087B78
:0C087B00787FE4F6D8FD75810A0208873A
:10083E00BB010689828A83E0225002E722BBFE02B8
:09084E00E32289828A83E49322EB
:00000001FF
