:100098007F807E251200E21201C2E4F508F509E529
:1000A800092441FF1202067FF47E011201A9050905
:1000B800E50970020508C3941AE508940040E07B3E
:1000C800007A00790C7D131201287F011201E87B68
:0A00D800007A00790C12016880C064
:1000E200759850438920758DFDD28EEF8EF01200E7
:1000F2006B010B1C200110258001153840011A707C
:1001020080011FE10000000125758DFC8015758DB1
:10011200FD8010758DFE800B758DFF8006758DFC40
:06012200E4F587D28E22F5
:080206008F993099FDC2992285
:08020E003098FDC298AF99225F
:10018D00120003FFFD3395E04D60108F993099FDFE
:0C019D00C299740129F9E43AFA80E522C5
:060128008B238A248925C7
:10012E00E4FFEFC39D50243098FDC298AB23AA2460
:10013E00A9258F82758300E5991200498F827583F8
:10014E000012001C640D60030F80D7AB23AA24A9F4
:0A015E00258F82758300E40200493A
:1001A900D3EF9400EE9400400F7DFADDFE7DF7DD7C
:0801B900FEEF1F70EB1E80E851
:0101C100221B
:1001D6008F80D2A0C2A1D2A27F027E001201A9C244
:0201E600A22253
:1001E8008F80C2A0C2A1D2A27F027E001201A9C242
:0201F800A22241
:1001C2007F021201E87F381201E87F0E1201E87FF8
:0401D200010201E83D
:100168008B238A248925AB23AA24A925120003609E
:10017800130525E5257002052414F9120003FF1262
:0501880001D680E22217
:030000000201FA00
:0C01FA00787FE4F6D8FD7581250200989E
:10000300BB010689828A83E0225002E722BBFE02FB
:09001300E32289828A83E493222E
:10001C00BB010CE58229F582E5833AF583E0225099
:10002C0006E92582F8E622BBFE06E92582F8E222E3
:0D003C00E58229F582E5833AF583E49322FD
:10004900F8BB010DE58229F582E5833AF583E8F0ED
:10005900225006E92582C8F622BBFE05E92582C899
:02006900F22281
:10006B00D083D082F8E4937012740193700DA3A324
:10007B0093F8740193F5828883E473740293B5F05B
:0D008B00067403936860E9A3A3A3A380D8C3
:00000001FF
