:0200840080FEFC
:10000300759850438920758DFDD28EEF8EF01200C6
:1000130043002C1C20003025800034384000387009
:1000230080003CE10000000042758DFC22758DFDCF
:1000330022758DFE22758DFF22758DFCE4F58722D6
:08007C008F993099FDC2992211
:030000000200708B
:0C007000787FE4F6D8FD7581070200845B
:10004300D083D082F8E4937012740193700DA3A34C
:1000530093F8740193F5828883E473740293B5F083
:0D006300067403936860E9A3A3A3A380D8EB
:00000001FF
