:1000B4007F807E251200031200EB7FF47E01120084
:0E00C400D212012F750A008F0B12000080EC83
:10000300759850438920758DFDD28EEF8EF01200C6
:1000130062002C1C200031258000363840003B70E4
:10002300800040E10000000046758DFC8015758D51
:10003300FD8010758DFE800B758DFF8006758DFC20
:06004300E4F587D28E22D5
:08012F003098FDC298AF99223F
:1000D200D3EF9400EE9400400F7DFADDFE7DF7DD54
:0800E200FEEF1F70EB1E80E829
:0100EA0022F3
:1000FF008F80D2A0C2A1D2A27F027E001200D2C2F4
:02010F00A2222A
:100111008F80C2A0C2A1D2A27F027E001200D2C2F1
:02012100A22218
:1000EB007F021201117F381201117F0E1201117F55
:0400FB0001020111EC
:10008F008B238A248925AB23AA24A9251200496032
:10009F00130525E5257002052414F9120049FF12F6
:0500AF0000FF80E222C9
:03000000020123D7
:0C012300787FE4F6D8FD7581250200B459
:10004900BB010689828A83E0225002E722BBFE02B5
:09005900E32289828A83E49322E8
:10006200D083D082F8E4937012740193700DA3A32D
:1000720093F8740193F5828883E473740293B5F064
:0D008200067403936860E9A3A3A3A380D8CC
:00000001FF
